:020000040800F2
:1000000000300020192100081F0700082107000800
:100010002307000825070008270700080000000044
:100020000000000000000000000000002907000898
:100030002B070008000000002D0700082F0700080C
:100040006921000869210008692100086921000868
:100050006921000869210008692100086921000858
:100060006921000869210008692100086921000848
:100070006921000869210008692100086921000838
:100080006921000869210008692100086921000828
:100090006921000869210008692100086921000818
:1000A0006921000869210008692100086921000808
:1000B000692100086921000800000000692100088A
:1000C000692100080000000000000000692100080C
:1000D000000000006921000869210008692100086A
:1000E00069210008692100080000000000000000EC
:1000F0000000000000000000000000000000000000
:1001000000000000000000000000000000000000EF
:1001100000000000000000006921000869210008BB
:1001200000000000000000000000000000000000CF
:1001300000000000000000000000000000000000BF
:1001400069210008692100080000000069210008F9
:100150006921000869210008692100086921000857
:10016000692100086921000800000000000000006B
:10017000000000000000000000000000000000007F
:080180000000000069210008E5
:100188000348044B834202D0034B03B1184770471E
:100198000C0000200C000020000000000548064B61
:1001A8001B1AD90F01EBA301491002D0034B03B16D
:1001B800184770470C0000200C00002000000000C9
:1001C80010B5064C237843B9FFF7DAFF044B13B197
:1001D8000448AFF300800123237010BD0C000020F9
:1001E800000000006C21000808B5044B1BB104494D
:1001F8000448AFF30080BDE80840CFE700000000E6
:10020800100000206C21000870B50F4B0F4DAB4259
:10021800A3EB050607D0B610002455F8043B0134BB
:100228009847A642F9D801F09DFF094D094B5E1B7E
:10023800AB424FEAA60606D0002455F8043B013429
:100248009847A642F9D870BDB4210008B421000827
:10025800B4210008B8210008830730B547D0541EE0
:10026800002A3ED0CAB2034601E0013C39D303F864
:10027800012B9D07F9D1032C2CD9CDB205EB05250F
:100288000F2C05EB054535D9A4F1100222F00F0C0F
:1002980003F1100EE6444FEA121C1A46C2E9005553
:1002A800C2E9025510327245F8D10CF1010214F07E
:1002B8000C0F03EB021204F00F0C13D0ACF1040383
:1002C80023F003030433134442F8045B9342FBD145
:1002D8000CF003042CB1C9B21C4403F8011BA3425F
:1002E800FBD130BD64461346002CF4D1F9E7034630
:1002F8001446C0E71A46A446E0E700BF72B6FEE718
:1003080000B591B02822002106A8FFF7A5FF002319
:1003180001930293039304930593012206924FF4E9
:10032800803307930A9202220D920E934FF4002312
:100338000F9306A801F07AF980B90F2301930221DF
:100348000291002303934FF480620492059301A85D
:1003580001F0B4FC20B911B05DF804FBFFF7CEFF43
:10036800FFF7CCFF30B585B001F028F9FFF7C8FFDB
:1003780000F0D6F800F064F800F02CF9284C294970
:10038800204600F09DFA204600F01DFB264B08226F
:100398001A6100219960D960A2221A601975234850
:1003A80000F0E3FE23E00024146000F081F900F07F
:1003B800A5F9054600F062F954238DF80830C5F315
:1003C80007238DF809308DF80A50C0F307238DF8FC
:1003D8000B308DF80C008DF80D408DF80E408DF81F
:1003E8000F40134B02AA10490D4800F01AFB642075
:1003F80001F008F904214FF0904001F016FE0D4B72
:100408000093002301930A4B6A460B49044800F005
:1004180008FB0A4A136801331360092BE7D9C2E7BE
:10042800880000202C00002058000020B000002088
:1004380054000020DEADBEEF700000202800002030
:1004480008B5194A0023536193611361136053601F
:100458009360D3600121D16111620E215162134A68
:10046800082111619360D360A121116002215160BC
:1004780013750F480F4A0260042242608360C3600C
:100488004FF4003202614FF4401242610376437622
:100498008376C3760377437700F06CF900B908BD1B
:1004A800FFF72CFFFBE700BF2C00002070000020A6
:1004B800880000200064004000B589B00023039341
:1004C80004930593069307930268144B9A4202D04B
:1004D80009B05DF804FB03F5D633DA6942F000721F
:1004E800DA61DA6902F000720192019A5A6942F4FB
:1004F80000325A615B6903F400330293029B4FF4A4
:10050800C0530393022304930323069309230793F9
:1005180003A94FF0904001F0A5FCD9E70064004022
:1005280070B588B000240394049405940694079445
:10053800264B5A6942F480025A615A6902F48002D1
:100548000092009A5A6942F400325A615A6902F4D8
:1005580000320192019A5A6942F480225A615B6919
:1005680003F480230293029B224604214FF090401B
:1005780001F056FD164D22464FF40051284601F071
:100588004FFD04230393012604960594069403A9BA
:100598004FF0904001F066FC4FF440630393022350
:1005A80004930594032306930723079303A9284676
:1005B80001F058FC4FF400530393049605940694F5
:1005C80003A9284601F04EFC08B070BD0010024097
:1005D8000004004800B587B00023009301930293FC
:1005E80003930493059319484FF0A04202604FF417
:1005F8000032426083600361437680F82030C36232
:1006080001228262C360C26180F8303004224261F4
:100618000376436300F070FB88B91023009301232D
:1006280001930723029300230393049305936946D8
:10063800064800F0E5FD28B907B05DF804FBFFF7B0
:100648005DFEEAE7FFF75AFEF6E700BFB0000020BC
:100658000368B3F1A04F00D0704782B003F1704334
:1006680003F504335A6942F080525A615B6903F01A
:1006780080530193019B02B07047000010B50B48EE
:1006880000F044FC10B10024204610BD6421074846
:1006980000F0DCFC20B10024044800F0B5FCF3E7CE
:1006A800024800F05FFD84B2F6E700BFB00000200A
:1006B80008B5FFF7E3FF0F4BB3F8B820B3F8C23023
:1006C8009A4214D09B1A07EE903AF8EEE77A9FED1B
:1006D8000A7A87EE270A801A07EE900AF8EEE77A78
:1006E80020EE270AF3EE0E7A30EE270A08BDB3EEA5
:1006F800090AFBE700F7FF1F0000A04208B5FFF753
:10070800D7FFF2EE047A20EE270ABDEEC00A10EEFB
:10071800103A18B208BDFEE7FEE7FEE7FEE7FEE77F
:1007280070477047704708B500F05AFF08BD0000D1
:1007380082B00A4B9A6942F001029A619A6902F002
:1007480001020092009ADA6942F08052DA61DB69AC
:1007580003F080530193019B02B0704700100240E0
:10076800034AD2F8883043F47003C2F888307047DF
:1007780000ED00E0002800F0A18038B5044690F8AC
:100788002030D3B12268136843F00103136000F0EE
:1007980033FF054623685A6812F0010F10D100F0A4
:1007A8002BFF401B0A28F5D9636A43F400336362C0
:1007B800052384F82030012038BDFFF77DFEE1E7EE
:1007C8001A6822F002021A6000F016FF0546236834
:1007D8005A6812F0020F0DD000F00EFF401B0A28D5
:1007E800F5D9636A43F400336362052384F8203043
:1007F8000120E1E7227E012A3DD01A6822F080021A
:100808001A60637E012B3BD02268136823F04003F3
:100818001360A37E012B39D02268136823F02003CC
:100828001360E37E012B37D02268136843F010036E
:100838001360237F012B35D02268136823F0080347
:100848001360637F012B33D02268136823F00403FD
:100858001360A368E2681343226913436269134370
:100868006268013A21681343CB610020606201236A
:1008780084F82030A0E71A6842F080021A60C0E7C6
:100888002268136843F040031360C2E722681368C4
:1008980043F020031360C4E72268136823F01003B1
:1008A8001360C6E72268136843F008031360C8E7BB
:1008B8002268136843F004031360CAE701207047F5
:1008C800026890F82030013BDBB2012B05D9436A5E
:1008D80043F4802343620120704730B4D2F80032D9
:1008E80043F00103C2F800324B6903F01F030120F3
:1008F80000FA03F3D2F81C026FEA030C20EA0300A3
:10090800C2F81C02C869B0B9D2F80C020CEA00009F
:10091800C2F80C028C884869CD6844EA054448301E
:1009280042F830400C8848698D6844EA05444830EC
:1009380002EBC0004460C86901281BD0886980BBED
:10094800D2F804020CEA0000C2F80402086970BB7D
:10095800D2F814020CEA0000C2F81402096A01294C
:100968002BD0D2F8003223F00103C2F80032002065
:1009780030BC7047D2F80C021843C2F80C028C88BD
:1009880048690D6844EA0544483042F830408C898B
:1009980048698D6844EA0544483002EBC000446069
:1009A800CCE7D2F804021843C2F80402CEE7D2F822
:1009B80014021843C2F81402D0E7D2F81C120B43F1
:1009C800C2F81C32CDE770B5044690F82050EDB25D
:1009D800012D06D0436A43F40023436201252846CB
:1009E80070BD022380F820300268136823F00103E9
:1009F800136000F001FE064623685B6813F0010FE0
:100A08000CD000F0F9FD831B0A2BF5D9636A43F477
:100A180000336362052384F82030E0E7002565622F
:100A2800DDE730B590F820C00468A4680CF1FF3CFD
:100A38005FFA8CFCBCF1010F62D814F0E05F59D06A
:100A4800C4F3016C012404FA0CF41C608B68002BBD
:100A58003DD10D68CB68046843EA45550CF118038D
:100A68001B01E55003680C690CF1180E03EB0E131B
:100A78005C600B7D012B35D0D17993791B0443EA57
:100A88000163517943EA012314790168234301EB97
:100A98000C11C1F88C31D17893781B0443EA0163B7
:100AA800517843EA0123117802680B4302EB0C12D8
:100AB800C2F8883102680CF1180C4FEA0C1C52F885
:100AC8000C3043F0010342F80C3000201DE04C6864
:100AD80043EAC403CC6823430CF1180424010568D5
:100AE8002B51BFE7036803EB0E13596841F480717B
:100AF8005960C1E7436A43F400134362012004E0EC
:100B0800436A43F480234362012030BD38B502684C
:100B1800936803F00303012B01D0002038BD04467D
:100B2800136813F0010F33D0936803F00D03012B02
:100B380009D0036C43F010030364436C43F00103D2
:100B480043640120EAE7936843F002039360036873
:100B580003221A6000F050FD054623689B6813F0D5
:100B6800010F13D000F048FD401B0228F5D9236877
:100B78009B6813F0010FF0D0236C43F0100323643B
:100B8800636C43F0010363640120C7E70020C5E7F5
:100B98000020C3E703689A6812F00C0F67D070B59D
:100BA8000446DA6812F0007F04D0008B40F201128C
:100BB800904246D060290ED023689A6812F0040F3C
:100BC80007D09A6812F0020F03D19A6842F0100217
:100BD8009A600C2943D023689A6812F0080F07D04E
:100BE8009A6812F0020F03D19A6842F020029A60C4
:100BF800602936D06C2936D10C2500F0FDFC06465C
:100C080023689B682B4230D000F0F6FC831B0B2B2B
:100C1800F6D923689B682B42F2D0236C43F010036B
:100C28002364636C43F00103636401201EE0236CBA
:100C380043F010032364636C43F0010363640120F1
:100C480014E00022196811F0400F04D109498A42C2
:100C5800EDD80132F6E740221A600C21ACE70425F2
:100C6800CBE70825C9E70425C7E7002070BD0020A9
:100C7800704700BFFF93090038B5044602689368BF
:100C880003F00303012B0DD091681A4B19420FD0C2
:100C9800236C43F010032364636C43F00103636423
:100CA800012038BD136813F0010FEDD00020F8E7DC
:100CB800936843F00103936000F09EFC05462368A7
:100CC8001B6813F0010F13D100F096FC431B022B95
:100CD800F5D923681B6813F0010FF0D1236C43F09A
:100CE80010032364636C43F0010363640120D8E7B5
:100CF8000020D6E73F00008030B597B0002301936D
:100D0800002800F0F7800446036C13F0100F52D14E
:100D1800036CABB1002023689A6812F0805F03D09F
:100D28009B6813F0005F47D0236C23F0120343F055
:100D380010032364636C43F00103636401203BE008
:100D48004364C364836480F83C30FFF781FC236804
:100D58009B6813F0805F01D00020DCE72046FFF796
:100D6800D5FE236C13F0100FD5D10028D3D1236CF6
:100D780023F4885323F0020343F002032364226818
:100D8800936823F0405393602268936843F080533C
:100D98009360594B1B68594AA2FB03239B0C03EB36
:100DA80083035B00019302E0019B013B0193019BDC
:100DB800002BF9D1AFE70020236C13F0100F40F09F
:100DC8009080002840F08D802368996811F0040114
:100DD80040F08780226C22F4817242F00202226481
:100DE800B3F1A04F54D04FF0A04202929A6802F09B
:100DF8000302012A4FD0029B23B19A6802F0030232
:100E0800012A4DD03E4A936823F4403365682B434A
:100E18009360627E5303656B012D01D04FF48051BE
:100E28000B43E1680B43A1680B4394F82010012998
:100E38003BD0A26A012A02D0E16A0A43134322681E
:100E4800916811F00C0F0CD1D16821F4804121F088
:100E58000201D160217E94F83020520042EA8132AA
:100E680013432168CD68274A2A401A43CA60236978
:100E7800012B2DD02268136B23F00F03136300237B
:100E88006364236C23F0030343F0010323642FE01E
:100E98001D4A0292AAE71B6813F0010FB9D1AAE70D
:100EA8001B6813F0010FB4D1ACE732B9626A013A9A
:100EB80043EA424242F48033BBE7226C22F022022A
:100EC80042F020022264626C42F001026264B0E7E0
:100ED80021680B6B23F00F03E269013A13430B639C
:100EE800CDE7236C23F0120343F0100323640120A1
:100EF80017B030BD0120FBE70000002083DE1B4354
:100F08000003005007C0F0FF0001005003689B6811
:100F180013F0040F70D110B5044690F83C30012B43
:100F28006CD0012380F83C30FFF7A6FE00285FD183
:100F3800236C23F4706323F0010343F48073236468
:100F48002F4B9B6813F01F0F17D02268B2F1A04FE8
:100F580013D0236C43F4801323642A4B9A421BD189
:100F68004FF0A043DB6813F0007F15D0236C23F407
:100F7800405343F4805323640EE0236C23F480131E
:100F880023642368DB6813F0007F05D0236C23F407
:100F9800405343F480532364236C13F4805F24D0BC
:100FA800636C23F006036364002384F83C302368F1
:100FB8001C221A60124B9B6813F01F0F0FD0104BA6
:100FC8009B6803F01F03052B09D00D4B9B6803F0AA
:100FD8001F03092B03D02368B3F1A04F0BD122685C
:100FE800936843F00403936005E000236364DBE740
:100FF800002384F83C3010BD022070470220FAE735
:10100800000300500001005090F83C30012B1AD02A
:1010180010B50446012380F83C306C21FFF7BAFD77
:1010280018B1002384F83C3010BD2046FFF76EFD50
:101038000028F6D1236C23F4885323F0010343F0EE
:1010480001032364EDE70220704700002DE9F04119
:1010580004460E464569082D0AD0414B9B6813F09B
:101068001F0F1BD10368DB6813F0010F0DD10C258E
:101078003B4B9B6813F01F0F20D02368B3F1A04FA0
:101088001CD04FF0A043DF681AE0036C43F0200344
:101098000364002380F83C3001205DE0304B9B68FE
:1010A80013F4404F01D10C25E2E7036C43F0200311
:1010B8000364002380F83C3001204DE02368DF689A
:1010C80000F09AFA804623681A682A4217D1B6F1C6
:1010D800FF3FF8D066B923681B682B42F3D1236C15
:1010E80043F004032364002384F83C30032033E0F6
:1010F80000F082FAA0EB0800B042E4D9EBE7226CDA
:1011080042F400722264DA6812F4406F1FD117F4B7
:10111800005F1CD11A6812F0080F18D09A6812F0F4
:10112800040F0CD1226C22F480722264226C12F417
:10113800805F0CD1226C42F00102226407E0226C2D
:1011480042F020022264626C42F00102626417F4E9
:10115800804F03D11D600020BDE8F0810020FBE72F
:10116800000300500368186C704770B590F83C3065
:10117800012B43D004460D46012380F83C30FFF78D
:10118800C5FC0646002834D10123236422689368ED
:1011980023F080439360012D1FD02268936843F0A9
:1011A8000043936000F028FA054623689B68002BEB
:1011B80019DA00F021FA431B0A2BF6D923689B6839
:1011C800002BF2DA236C23F0120343F0100323649C
:1011D800002384F83C3001260EE02268936843F02F
:1011E80080439360D9E7236C23F0030343F00103A2
:1011F8002364002384F83C30304670BD0226FBE7A8
:1012080030B496B00022019290F83C20012A00F0F8
:10121800A5810346012280F83C200068826812F00C
:10122800040F40F090814A68042A35D8046B02EB19
:10123800420252004FF01F0C0CFA02FC24EA0C0C7C
:101248000C6894404CEA040404631868826812F03D
:101258000C0F6BD10A68092A4FD9846902EB420244
:101268001E3A4FF0070C0CFA02FC24EA0C048D68B5
:1012780005FA02F22243826148691C68E268C2F3F7
:10128800C102520090400A69013A032A00F28D8097
:10129800DFE802F0426A7580092A10D8446B02EB35
:1012A800420252001E3A4FF01F0C0CFA02FC24EACC
:1012B8000C040D6805FA02F222434263C5E70E2AC0
:1012C8000DD8846B02EB420252003C3A1F25954030
:1012D80024EA05040D6895402C438463B5E7C46B84
:1012E80002EB420252005A3A1F25954024EA0504AF
:1012F8000D6895402C43C463A7E7446902EB42029A
:101308004FF0070C0CFA02FC24EA0C048D6805FA6D
:1013180002F222434261AFE7256E914A2A400D68E6
:1013280040EA85652A4342F00042226618688268CE
:1013380002F00302012A68D0CA68012A6BD0D0F8EB
:10134800B02001240D68AC4022EA0402C0F8B020A5
:101358000A68102A00F08680112A00F0A480122A58
:1013680000F0A7800020F3E0656E7D4A2A400D68F2
:1013780040EA85652A4342F000426266D6E7A56ED8
:10138800774A2A400D6840EA85652A4342F00042C0
:10139800A266CBE7E26E724D15400A6840EA8262A7
:1013A800154345F00045E566C0E7226E02F0F842B5
:1013B8000868B2EB806F03D1226E22F000422266E9
:1013C8001A68506E00F0F8400C68B0EB846F03D1D7
:1013D800506E20F0004050661A68906E00F0F84099
:1013E8000C68B0EB846F03D1906E20F000409066DB
:1013F8001A68D06E00F0F8400C68B0EB846F95D195
:10140800D06E20F00040D06690E7026812F0010F1D
:1014180092D000209CE0D0F8B0200D680124AC40A8
:101428002243C0F8B0200A68092A0DD91D68A869A6
:1014380002EB42021B3A0724944020EA04008C681D
:1014480094402043A86183E71D686869013202EB74
:1014580042020724944020EA04008C689440204308
:10146800686175E73F49896811F4000F7FF474AF2C
:101478001868B0F1A04F23D04FF0A04102918168C5
:1014880001F0030101291ED0029921B18C6804F0F2
:101498000304012C21D0102A24D0112A42D0122A68
:1014A8004AD0002054E02F49896811F0807FDFD0AE
:1014B80055E72C49896811F4800FD9D0002047E0FE
:1014C80029490291DBE7016811F0010FDCD01A6CA1
:1014D80042F020021A6401203AE0096811F0010F75
:1014E800F5D1D8E7B0F1A04FD7D11E498A6842F4A8
:1014F80000028A601D4A1268A1F14E61A1F584219B
:10150800A1F27D41A1FB0212920C02EB8202520071
:10151800019202E0019A013A0192019A002AF9D156
:10152800002015E0B0F1A04FB9D10E498A6842F009
:1015380080728A6000200BE00A498A6842F48002BF
:101548008A60002004E01A6C42F020021A6401202C
:10155800002283F83C2016B030BC70470220FAE71E
:1015680000F0FF830003005000010050000000203D
:1015780010B504460E4B1A784FF47A73B3FBF2F3A6
:101588000C4A1068B0FBF3F000F0AEFD68B90F2C00
:1015980001D901200AE0002221464FF0FF3000F077
:1015A80093FD054B1C60002000E0012010BD00BF2A
:1015B80004000020000000200800002008B5074AA9
:1015C800136843F010031360032000F06BFD0F2035
:1015D800FFF7CEFFFFF7ACF8002008BD002002405F
:1015E800034A1168034B1B780B441360704700BF14
:1015F8000001002004000020014B1868704700BF5C
:101608000001002038B50446FFF7F6FF0546B4F19F
:10161800FF3F02D0044B1B781C44FFF7EDFF401B33
:10162800A042FAD338BD00BF04000020002800F013
:10163800FF8270B582B00446036813F0010F3BD0F7
:10164800B44B5B6803F00C03042B1ED0B14B5B68F2
:1016580003F00C03082B13D06368B3F5803F68D000
:10166800002B40F0928003F1804303F504331A689D
:1016780022F480321A601A6822F480221A605DE02F
:10168800A44B5B6813F4803FE6D04FF4003393FA21
:10169800A3F3A04B19684FF4003393FAA3F3B3FAFA
:1016A80083F303F01F03012202FA03F30B4203D072
:1016B8006368002B00F0BE82236813F0020F00F06D
:1016C800C480944B5B6813F00C0F00F09C80914B26
:1016D8005B6803F00C03082B00F08F802369002B54
:1016E80000F0F080012292FAA2F3B3FA83F303F137
:1016F800845303F584139B001A60FFF77DFF0546AA
:10170800022393FAA3F3834B1968022393FAA3F3F2
:10171800B3FA83F303F01F03012202FA03F30B4227
:1017280040F0C280FFF768FF401B0228E8D9032079
:1017380089E2784A136843F480331360754AD36AA0
:1017480023F00F03A1680B43D3626368002B36D0E4
:10175800FFF752FF05464FF4003393FAA3F36D4B9E
:1017680019684FF4003393FAA3F3B3FA83F303F041
:101778001F03012202FA03F30B429DD1FFF73CFF3E
:10178800401B6428E7D903205DE2B3F5A02F09D0F8
:10179800604B1A6822F480321A601A6822F4802298
:1017A8001A60CBE703F18043A3F53C331A6842F48F
:1017B80080221A601A6842F480321A60BEE7FFF786
:1017C8001BFF05464FF4003393FAA3F3514B1968F6
:1017D8004FF4003393FAA3F3B3FA83F303F01F0330
:1017E800012202FA03F30B423FF466AFFFF704FF4E
:1017F800401B6428E6D9032025E2464B5B6813F4B6
:10180800803F7FF46BAF022393FAA3F3414B19682F
:10181800022393FAA3F3B3FA83F303F01F0301221D
:1018280002FA03F30B4203D02369934240F0048287
:101838003848036823F0F8036169F82292FAA2F2A3
:10184800B2FA82F291400B430360236813F0080F49
:1018580000F08C80A369002B60D0012191FAA1F2DD
:10186800B2FA82F22C4B13449B001960FFF7C4FEB6
:101878000546022393FAA3F293FAA3F293FAA3F28A
:10188800244A516A93FAA3F3B3FA83F303F01F03CC
:10189800012202FA03F30B4268D1FFF7ADFE401BA9
:1018A8000228E6D90320CEE11A48036823F0F8039A
:1018B8006169F82292FAA2F2B2FA82F291400B43DD
:1018C8000360C2E7012393FAA3F3B3FA83F303F1A6
:1018D800845303F584139B0000221A60FFF78CFEE3
:1018E8000546022393FAA3F30A4B1968022393FAD5
:1018F800A3F3B3FA83F303F01F03012202FA03F3FD
:101908000B42A2D0FFF778FE401B0228E9D903203A
:1019180099E100BF0010024020819010012292FA44
:10192800A2F2B2FA82F2B74B13449B0000221A606B
:10193800FFF762FE0546022393FAA3F293FAA3F295
:1019480093FAA3F2B04A516A93FAA3F3B3FA83F372
:1019580003F01F03012202FA03F30B4206D0FFF73C
:101968004BFE401B0228E6D903206CE1236813F0E4
:10197800040F00F0A980A44BDB6913F0805F20D12D
:10198800A14BDA6942F08052DA61DB6903F08053D7
:101998000193019B01259D4B1B6813F4807F12D096
:1019A800E368012B23D073BB03F1804303F50433B1
:1019B8001A6A22F001021A621A6A22F004021A62F2
:1019C8001AE00025E7E7914A136843F4807313602F
:1019D800FFF712FE06468D4B1B6813F4807FDFD19C
:1019E800FFF70AFE801B6428F5D903202BE1864AFD
:1019F800136A43F001031362E368002B3CD0FFF73E
:101A0800FBFD06462EE0052B09D07F4B1A6A22F013
:101A180001021A621A6A22F004021A62ECE77A4B8F
:101A28001A6A42F004021A621A6A42F001021A6241
:101A3800E2E7022393FAA3F3734B596A022393FA5A
:101A4800A3F3B3FA83F303F01F03012202FA03F3AB
:101A5800194238D1FFF7D0FD801B41F288339842F4
:101A680000F2EC80022393FAA3F293FAA3F3002B7B
:101A7800DFD0654B196AE1E7FFF7BEFD064618E0BF
:101A8800022393FAA3F3604B596A022393FAA3F350
:101A9800B3FA83F303F01F03012202FA03F3194296
:101AA80011D0FFF7A9FD801B41F28833984200F25C
:101AB800C780022393FAA3F293FAA3F3002BDFD093
:101AC800514B196AE1E7B5BBE369002B00F0BA8016
:101AD8004D4A526802F00C02082A00F09980022B45
:101AE8002FD04FF0807393FAA3F3B3FA83F303F183
:101AF800845303F584139B0000221A60FFF77CFDD2
:101B080004464FF0007393FAA3F33F4B19684FF064
:101B1800007393FAA3F3B3FA83F303F01F030122CC
:101B280002FA03F319426BD0FFF766FD001B022887
:101B3800E7D9032087E0344AD36923F08053D3617F
:101B4800C2E74FF0807393FAA3F3B3FA83F303F178
:101B5800845303F584139B0000221A60FFF74CFDA1
:101B680005464FF0007393FAA3F3274B19684FF01B
:101B7800007393FAA3F3B3FA83F303F01F0301226C
:101B880002FA03F3194206D0FFF736FD401B02287C
:101B9800E7D9032057E01C494B6823F47413626AA1
:101BA800206A024313434B604FF0807393FAA3F308
:101BB800B3FA83F303F1845303F584139B000122E2
:101BC8001A60FFF719FD04464FF0007393FAA3F368
:101BD8000D4B19684FF0007393FAA3F3B3FA83F32C
:101BE80003F01F03012202FA03F3194206D1FFF79B
:101BF80003FD001B0228E7D9032024E0002022E08F
:101C0800002020E020819010001002400070004069
:101C1800012B1AD0104B5B6803F48031226A914281
:101C280015D103F47013626A934212D100200AE0BE
:101C380001207047012006E0012004E0032002E0B3
:101C4800032000E0002002B070BD0120FBE7012066
:101C5800F9E70120F7E700BF00100240114B5B686D
:101C680003F00C02042A18D0082A18D1C3F38342BF
:101C78000D49885C0B4AD26A02F00F020B498A5C54
:101C880013F4803F05D00A4BB3FBF2F303FB00F0DB
:101C98007047084B03FB00F070470548704706483B
:101CA800704700BF00100240A421000894210008DA
:101CB8000024F40000093D0000127A00002800F01A
:101CC800BE8070B50D460446614B1B6803F00703E0
:101CD8008B420BD25E4A136823F007030B43136051
:101CE800136803F007038B4240F0AB80236813F0BE
:101CF800020F06D0574A536823F0F003A1680B433C
:101D08005360236813F0010F5AD06368012B2DD05C
:101D1800022B40D0022292FAA2F24E4A1068022206
:101D280092FAA2F2B2FA82F202F01F02012101FA3B
:101D380002F2104200F0878046494A6822F0030206
:101D480013434B60FFF758FC0646424B5B6803F0B1
:101D58000C036268B3EB820F32D0FFF74DFC801B97
:101D680041F288339842F0D9032067E04FF40032FB
:101D780092FAA2F2374A10684FF4003292FAA2F2AD
:101D8800B2FA82F202F01F02012101FA02F20242C3
:101D9800D2D1012052E04FF0007292FAA2F22D4AFD
:101DA80010684FF0007292FAA2F2B2FA82F202F0D0
:101DB8001F02012101FA02F21042BDD101203DE0CB
:101DC800234B1B6803F00703AB420AD9204A136868
:101DD80023F007032B431360136803F00703AB4298
:101DE80033D1236813F0040F06D01A4A536823F43A
:101DF800E063E1680B435360236813F0080F07D0D2
:101E0800144A536823F46053216943EAC1035360B9
:101E1800FFF724FF0F4B5B6803F0F003F02292FA00
:101E2800A2F2B2FA82F2D3400B4AD35CD8400B4BF1
:101E380018600B4B1868FFF79BFB002070BD012052
:101E480070470120FAE70120F8E70120F6E700BF14
:101E580000200240001002408421000800000020F9
:101E680008000020F0B583B0002362E085685E00BA
:101E78000324B44025EA0405CC68B4402C438460AC
:101E8800456825EA0C054C68C4F300149C402C43B3
:101E980044605FE0DD08083550F8254003F0070C82
:101EA8004FEA8C0C4FF00F0E0EFA0CFE24EA0E0EC1
:101EB8000C6904FA0CF444EA0E0440F8254060E08A
:101EC800032400E0002404FA0EF42C430CF1020C65
:101ED8004F4D45F82C404F4CA568D44325EA0206DF
:101EE8004F6817F4801F01D042EA0506494DAE60DD
:101EF800ED6804EA05064F6817F4001F01D042EAAE
:101F08000506444DEE606D6804EA05064F6817F44F
:101F1800003F01D042EA05063E4D6E602D682C4018
:101F28004E6816F4803F01D042EA0504394A14602D
:101F380001330A6832FA03F468D04FF0010C0CFA46
:101F480003FC1CEA0202F3D04C6804F00304013CD1
:101F5800012C8BD94C6804F00304032C0CD0C46802
:101F68005D004FF0030C0CFA05FC24EA0C0C8C689D
:101F7800AC4044EA0C04C4604C6804F00304022C2E
:101F880088D004684FEA430E4FF0030C0CFA0EFC9D
:101F980024EA0C0C4C6804F0030404FA0EF444EA36
:101FA8000C0404604C6814F4403FC1D01A4CA56975
:101FB80045F00105A561A46904F001040194019CA0
:101FC8004FEA930C0CF10205114C54F8255003F01C
:101FD800030E4FEA8E0E0F2404FA0EF425EA0405C8
:101FE800B0F1904F3FF46EAF0C4CA0420AD004F50C
:101FF8008064A04208D004F58064A0423FF460AF3A
:10200800052460E701245EE702245CE703B0F0BD25
:102018000000014000040140001002400004004894
:102028000AB18161704781627047436901EA03021E
:1020380021EA030141EA024181617047002808DB77
:102048000901C9B200F1604000F5614080F8001351
:10205800704700F00F000901C9B2014B19547047CD
:1020680014ED00E000B500F00700C0F1070CBCF16A
:10207800040F28BF4FF0040C031D062B0FD9C31EF5
:102088004FF0FF3E0EFA0CF021EA000199400EFADB
:1020980003FE22EA0E0241EA02005DF804FB002377
:1020A800EEE70000074AD36823F4E0631B041B0C27
:1020B800000200F4E060034343F0BF6343F40033DD
:1020C800D360704700ED00E010B50446054BD868B2
:1020D800C0F30220FFF7C6FF01462046FFF7AEFF18
:1020E80010BD00BF00ED00E00138B0F1807F0BD2D9
:1020F8004FF0E0235861054AF02182F823100020B0
:10210800986107221A6170470120704700ED00E0CE
:10211800DFF834D0FEF724FB0C480D490D4A0023A4
:1021280002E0D458C4500433C4188C42F9D30A4A84
:102138000A4C002301E013600432A242FBD3FEF7ED
:1021480063F8FEF70FF9FEE70030002000000020DA
:102158000C000020BC2100080C0000200401002015
:10216800FEE70000F8B500BFF8BC08BC9E46704703
:0C217800F8B500BFF8BC08BC9E467047DC
:102184000000000000000000010203040607080923
:102194000102030405060708090A0B0C0D0E0F10B3
:1021A40002030405060708090A0B0C0D0E0F101094
:0421B400F10100082D
:0421B800C901000851
:0C21BC0000127A0001000000100000007A
:0400000508002119B5
:00000001FF
