:020000040800F2
:1000000000300020512D0008951D0008971D0008A4
:10001000991D00089B1D00089D1D000800000000A0
:100020000000000000000000000000009F1D00080C
:10003000A11D000800000000A31D0008A51D000868
:10004000A12D0008A12D0008A12D0008A12D000858
:10005000A12D0008A12D0008A12D0008A12D000848
:10006000A12D0008A12D0008A12D0008A12D000838
:10007000A12D0008A12D0008A12D0008A12D000828
:10008000A12D0008A12D0008A12D0008A12D000818
:10009000A12D0008A12D0008A12D0008A12D000808
:1000A000A12D0008A12D0008A12D0008A12D0008F8
:1000B000A12D0008A12D000800000000A12D0008BE
:1000C000A12D00080000000000000000A12D000884
:1000D00000000000A12D0008A12D0008A12D00089E
:1000E000A12D0008A12D0008000000000000000064
:1000F0000000000000000000000000000000000000
:1001000000000000000000000000000000000000EF
:100110000000000000000000A12D0008A12D000833
:1001200000000000000000000000000000000000CF
:1001300000000000000000000000000000000000BF
:10014000A12D0008A12D000800000000A12D00082D
:10015000A12D0008A12D0008A12D0008A12D000847
:10016000A12D0008A12D00080000000000000000E3
:10017000000000000000000000000000000000007F
:0801800000000000A12D0008A1
:100190000348044B834202D0034B03B11847704716
:1001A0006800002068000020000000000548064BA1
:1001B0001B1AD90F01EBA301491002D0034B03B165
:1001C0001847704768000020680000200000000009
:1001D00010B5064C237843B9FFF7DAFF044B13B18F
:1001E0000448AFF300800123237010BD6800002095
:1001F00000000000A42D000808B5044B1BB1044901
:100200000448AFF30080BDE80840CFE700000000DD
:100210006C000020A42D000870B50F4B0F4DAB42B1
:10022000A3EB050607D0B610002455F8043B0134B3
:100230009847A642F9D802F0B5FD094D094B5E1B5F
:10024000AB424FEAA60606D0002455F8043B013421
:100250009847A642F9D870BD342E0008342E000805
:10026000342E0008382E0008830730B547D0541EBE
:10027000002A3ED0CAB2034601E0013C39D303F85C
:10028000012B9D07F9D1032C2CD9CDB205EB052507
:100290000F2C05EB054535D9A4F1100222F00F0C07
:1002A00003F1100EE6444FEA121C1A46C2E900554B
:1002B000C2E9025510327245F8D10CF1010214F076
:1002C0000C0F03EB021204F00F0C13D0ACF104037B
:1002D00023F003030433134442F8045B9342FBD13D
:1002E0000CF003042CB1C9B21C4403F8011BA34257
:1002F000FBD130BD64461346002CF4D1F9E7034628
:100300001446C0E71A46A446E0E700BF0EB400B5A5
:1003100082B003AB816853F8042B019300F060F8BE
:1003200002B05DF804EB03B0704700BF0FB400B536
:10033000074983B004AB086853F8042B8168019324
:1003400000F04EF803B05DF804EB04B0704700BF56
:10035000000000209368013B002B936011DA10B479
:100360009469A34209DB0A2907D01368581C10605E
:10037000197008465DF8044B70475DF8044B00F0B7
:1003800073B91368581C106019700846704700BF95
:100390009BB1F8B5134406460F46541E5D1E01E09E
:1003A000AC4208D014F8011F3A463046FFF7D2FF9E
:1003B000431CF5D1F8BD0020F8BD0020704700BFF8
:1003C000936810B514461BB918460023636010BD2E
:1003D00000F09AF90023A3600023636010BD00BF02
:1003E0002DE9F04FA1B08B4691461C46049018B100
:1003F000036A002B00F01C81BBF80C30180740F199
:100400009580DBF81030002B00F090800023CA4666
:100410000D9343F22003ADF839309AF80030864E40
:1004200007940127002B79D0D14604E019F8013F49
:10043000002B00F08580252BF8D1B9EB0A0840F09D
:10044000828099F80030002B68D000234FF0FF32F3
:10045000CDE9092309F1010908930B938DF8633065
:100460001E9305E0089A07FA03F31A430892A1467F
:100470004C46052214F8011B304600F051FEA246FE
:10048000831B0028EED1089BD90644BF20228DF89B
:10049000632099F800101A0744BF2B228DF86320BF
:1004A0002A2966D1079A1168043200290792C0F2FE
:1004B0009A800B9199F801102E2970D05F4C03227D
:1004C000204600F02DFE38B1089B001B40228240E0
:1004D00013430AF1010A08931AF8011B58488DF8D2
:1004E0003810062200F01CFE002800F08280554BD8
:1004F000002B69D007AA0092534B04985A4608A9CA
:10050000AFF300800390039B013307D00D9B039A48
:1005100013440D939AF80030002B85D1BBF80C30B2
:100520005B060AD40D9821B0BDE8F08F04985946B7
:1005300000F046FE00283FF469AF4FF0FF30F2E7CD
:10054000B9EB0A08EAD00AF1FF35CDF81490A946B4
:10055000049D01E0A0453ED94C465A4619F8011FBA
:100560002846FFF7F7FE02340130A4EB0A04F1D16C
:10057000D4E7A1F13002092A88BFCA469CD80B9B58
:1005800000E00134217803EB830302EB4303A1F184
:100590003002092AF5D92E290B93A2468ED19AF85A
:1005A00001102A292FD1079B9AF802101A68099284
:1005B0000433002A0AF102000793B8BF4FF0FF335B
:1005C0008246B8BF099379E7079B073323F00703F7
:1005D000083307939AE70D99DDF81490414499F890
:1005E00000300D912FE7494243F002030B9108932D
:1005F00060E707AA0092144B04985A4608A900F035
:100600009FFF03907FE7A1F130020023092A09939D
:100610000AF1010A3FF652AF1AF8011F03EB8303F8
:1006200002EB4303A1F13002092AF5D9099345E70A
:1006300000F0D4FAE0E600BFC02D0008C82D000885
:10064000CC2D0008000000009103000810B4054CF8
:100650008446134620685DF8044B0A466146FFF75E
:10066000BFBE00BF00000020F8B50D461446064688
:1006700010B1036A002B37D0A389A269A2601A07C0
:1006800019D52369BBB122686169D31AEDB29942C9
:100690002F4620DD0133A1680139A160511C216082
:1006A000157062699A420DD0A389DB0701D50A2D26
:1006B00008D03846F8BD2146304600F081FD38B9F3
:1006C0002369E0E72146304600F042FB0028F0D0E5
:1006D0004FF0FF37EDE72146304600F039FB0028A8
:1006E000F6D122680123D6E700F078FAC4E700BF0C
:1006F00010B4044C03460A4620685DF8044B1946C2
:10070000FFF7B2BF000000209368002B00F0F880D4
:100710002DE9F04FB1F90CC01CF0080F83B09046E2
:1007200081460C4631D00B697BB31CF00207D8F828
:10073000006038D00027D4F828B0216ADFF8C4A2BE
:100740003D4655452B463A4628BF53464846C5B117
:10075000D847002840F3CA80D8F808301B1A07444D
:100760002D1AC8F80830002B00F0B68055452B46EE
:10077000D4F828B0216A28BF53463A464846002D8F
:10078000E6D1D6E900750836DBE72146484600F099
:1007900017FD002840F0AF80B4F90CC0D8F8006015
:1007A0001CF00207C6D11CF0010A63D12368A168BE
:1007B000574618468B46002F58D01CF4007F00F097
:1007C000B580B9420A4600F2E1801CF4906F2FD048
:1007D000216962695D1A02EB420202EBD2726B1C64
:1007E00052103B44934292BF93469B461A461CF4D8
:1007F000806F00F0EA801146484600F00FFB0028A9
:1008000000F0F9802A462169009000F03BFDA289A2
:10081000009B22F4906242F08002A2815819ABEB57
:100820000505C4F814B02361A5602060BB463A46B4
:100830005146009200F0D0FBA1682368009AA1EB1A
:100840000B011A443D46A16022600027D8F8083009
:100850005B1BAA44C8F80830002B3DD02368A16870
:10086000B4F90CC018468B46002FA6D1D6E900A7D4
:1008700008369EE73846BB463D460097002D41D0DE
:10088000002846D0009A2068A168D4E90473AA42DF
:1008900028BF2A46B84204D901EB030A524500F3A7
:1008A0008580934275DC216AA76A5A464846B84754
:1008B000B0F1000A1ADD009BB3EB0A0300930FD0DE
:1008C0000120D8F80830A3EB0A03D344A5EB0A05AE
:1008D000C8F80830002BD1D1002003B0BDE8F08F5C
:1008E0002146484600F034FA0028EAD0B4F90C302A
:1008F00043F04003A3814FF0FF3003B0BDE8F08F19
:1009000000207047756833460836002DFAD0D3F8BA
:1009100000B02A460A21584600F002FC002867D0A1
:100920000130A0EB0B0300931A46ACE722699A4210
:1009300014D36269BA4211D86FF00043BB4228BF9A
:100940003B46A56A93FBF2F3216A02FB03F3484698
:100950005246A847051EC9DD7F1B77E7B94228BF6D
:1009600039460D4618460A46514600F035FBA16847
:100970002368491B2B44A16023600029ECD1214648
:10098000484600F0E5F90028E6D0AFE7BB463A4616
:100990004EE75946019200F01FFB019AA3689B1A8B
:1009A000A360236813442360924684E75946524665
:1009B00000F012FB2368534423602146484600F0B0
:1009C000C7F900283FF477AF90E7484600F0F4FC01
:1009D000034600287FF422AF2169484600F09EFAC2
:1009E000B4F90C300C22C9F8002023F080037FE713
:1009F0006A1C009247E70C22B4F90C30C9F80020B9
:100A000076E700BF00FCFF7F00207047024A0349E1
:100A1000034800F061BB00BF50000020510D0008EA
:100A2000040000200C4B4168994210B5044601D0E7
:100A300000F08EF9A168094B994202D0204600F0DF
:100A400087F9E168064B994204D02046BDE8104082
:100A500000F07EB910BD00BF84000020EC00002033
:100A600054010020002070472DE9F8432A4C2B49FF
:100A7000DFF8BC90DFF8BC80294FC4F8381100259E
:100A800004230822294604F15C00264EE360C4E9F1
:100A90000055C4E90455A5606566A561FFF7E4FB50
:100AA000214B63670822294604F1C400C4E90849C0
:100AB000C4E90A87C4E91A55C4E91E552567C4F874
:100AC000CC50C4F880502663FFF7CEFB174BC4F818
:100AD000DC30294604F16803082204F59670C4F856
:100AE0008830C4E92398C4E92576C4E93455C4E9BB
:100AF0003855C4F8D850C4F83451C4F8E850FFF75A
:100B0000B3FB04F1D003C4E93D98C4E93F76C4F8CF
:100B1000F030BDE8F88300BF840000200D0A000813
:100B200091190008B519000809000100120002001F
:100B30002919000851190008F8B5254BD3F83831A8
:100B40000646002B3CD0234FD7E90134013B04D5A6
:100B50001DE05A1C04F1680419D0B4F90C50013B93
:100B6000002DF6D11C4BE360C4E90155C4E90455DE
:100B700065662560A5610822294604F15C00FFF73F
:100B800073FBC4E90D55C4E912552046F8BD3D6814
:100B90000DB12F46D8E74FF4D671304600F03EF93C
:100BA000044680B10423C0E900530C302946A060FC
:100BB0004FF4D0722546FFF757FB3C602F46C3E742
:100BC000FFF752FFBFE70C2338603360DDE700BF5B
:100BD00084000020500000200100FFFF036A03B1E1
:100BE0007047044B044AD3F838310262002BF7D126
:100BF0003AE700BF84000020250A0008704700BFC4
:100C0000704700BF024A0349002000F065BA00BFE8
:100C100050000020090A0008024A0349002000F0A1
:100C20005BBA00BF50000020650A0008B1F90C3023
:100C30002DE9F0411E070C4680463DD44A68002A43
:100C400056DDE56A002D34D00022D8F80060C8F8DF
:100C5000002013F48052216A57D101234046A8474F
:100C6000451C024666D0B4F90C30E56A216A580783
:100C700005D56368D21A636B0BB1236CD21A0023BB
:100C80004046A847431C42D0002363602369236089
:100C9000A389DF0400D56065616BC8F8006041B1CD
:100CA00004F14403994202D0404600F037F9002392
:100CB00063630020BDE8F0810E69002EF9D09B0728
:100CC0000D6808BF4B690E6018BF0023AD1B8B6019
:100CD0000BE02B463246216AA76A4046B847B0F17E
:100CE000000CA5EB0C05664406DD002DF1DCE0E709
:100CF0000A6C002AA5DCDCE7B4F90C3043F04003B1
:100D0000A3814FF0FF30BDE8F081626DAFE7D8F806
:100D10000010B4F90C301D29F0D80C4ACA40D50790
:100D2000ECD52269226000226260DA04B4D5002981
:100D3000B1D0B1E7D8F80030002B94D01D2B01D0F2
:100D4000162BD9D1C8F80060B3E700BF01004020DE
:100D50000B69B3B110B5044682B008B1036A5BB148
:100D6000B1F90C3013B9002002B010BD204602B01A
:100D7000BDE81040FFF75ABF0191FFF72FFF01991F
:100D8000EEE70020704700BFB8B138B50D4A0369DF
:100D9000156804462BB10DB12B6A53B1B4F90C3070
:100DA0000BB9002038BD21462846BDE83840FFF782
:100DB0003DBF2846FFF712FFF0E7034A0349044806
:100DC00000F08AB90000002050000020510D0008FA
:100DD0000400002070B5104E336805460C46B3B1D0
:100DE0002146284600F08EFD431C0CD0C41C24F084
:100DF0000304A04205D0211A284600F083FD0130EB
:100E000001D0204670BD4FF0FF34204670BD19461A
:100E100000F078FD3060E3E7C00100202DE9F843E1
:100E2000CD1C25F0030508350C2D38BF0C25002DF1
:100E3000064618DBA94216D8DFF8DC8000F0C2FCB9
:100E4000D8F80420A2B1144603E0636822467BB1BF
:100E50001C4623685B1BF8D40B2B1FD89442636895
:100E600054D053600CE00C2333600020BDE8F883BD
:100E700029463046FFF7AEFF431C044619D00560F3
:100E8000304600F0A1FC04F10B00231D20F0070008
:100E9000C21A1CBF1B1AA350BDE8F8836119944203
:100EA000256014BF5160C8F80410635163684B603B
:100EB000E6E7D8F804701FB33C467F68002FFBD1EB
:100EC00023683946304604EB030900F01BFD8145D9
:100ED00016D12368ED1A29463046FFF77BFF013013
:100EE0000ED02368D8F804202B442360536883B1C4
:100EF000A34203D01A465B689C42FBD10023B0E7B3
:100F00000C233360304600F05FFCAEE7C8F80430D5
:100F1000B6E7C8F80470B3E7C0010020002950D03C
:100F200038B551F8043C0C1F002BB8BFE418054637
:100F300000F048FC274A13682BB1A3420CD9216862
:100F4000601883422CD0636028461460BDE83840A6
:100F500000F03ABCA3420FD81A465B68002BF9D1C7
:100F600011685018844217D02CD36360546028460F
:100F7000BDE8384000F028BC11685018A04214D0D9
:100F800020D8216860188342EFD118685B68084454
:100F9000C4E900035460EAE723680B441360E6E702
:100FA00018685B6808442060CDE720680144501849
:100FB00083421160DBD1D3E900040144C2E900148B
:100FC000D5E770470C232B602846BDE8384000F079
:100FD000FBBB00BFC401002088420ED98B1883429E
:100FE0000BD900EB020C002A6ED0624613F801CD3B
:100FF00002F801CD9942F9D170470F2A0FD8034664
:1010000002F1FF3C002A5FD00CF1010C013B8C4443
:1010100011F8012B03F8012F6145F9D1704740EA1F
:1010200001039B0751D1A2F1100370B501F1200C0F
:1010300023F00F0501F1100E00F11004AC441B0960
:101040005EF8105C44F8105C5EF80C5C44F80C5CD4
:101050005EF8085C44F8085C5EF8045C44F8045CE4
:101060000EF1100EE64504F11004E9D1013312F03F
:101070000C0F01EB031102F00F0400EB031328D057
:10108000043C24F003064FEA940C1E441C1F8E46B9
:101090005EF8045B44F8045FB442F9D10CF101043A
:1010A00002F0030203EB840301EB840102F1FF3C35
:1010B0004AB10CF1010C013B8C4411F8012B03F8EF
:1010C000012F6145F9D170BD704702F1FF3C034625
:1010D0009AE72246EAE700BF2DE9F843074688462B
:1010E00016464FF00009D6E90154013D10D4A389FA
:1010F000012B08D9B4F90E3001332146384602D00D
:10110000C04749EA0009013D6B1C04F16804EED1B7
:101110003668002EE7D14846BDE8F883000000009D
:1011200001F0FF01102A2BDB10F0070F08D010F898
:10113000013B013A8B422DD010F0070F42B3F6D19C
:10114000F0B441EA012141EA014122F007047FF0B5
:1011500000070023F0E80256083C85EA010586EA0C
:10116000010685FA47F5A3FA87F586FA47F6A5FA48
:1011700087F68EB9EED1F0BC01F0FF0102F0070254
:1011800032B110F8013B013A83EA010313B1F8D1FF
:101190000020704701387047002D06BF35460338E0
:1011A000073815F0010F07D1013015F4807F02BF19
:1011B000013015F4C03F0130F0BC0138704700BF6A
:1011C00038B52F4B1B6805460C4613B11A6A002A26
:1011D0004BD0B4F90C3018071CD5226922B313F098
:1011E000010107D0616900204942A060A1613AB1C4
:1011F000002038BD980758BF6169A160002AF7D167
:10120000190658BF1046F4D543F04003A3814FF0B0
:10121000FF3038BDD9062CD55A0712D4226943F0C5
:101220000803A381002ADAD103F42071B1F5007F0D
:10123000D5D02146284600F0C9FAB4F90C3022690D
:10124000CDE7616B51B104F14402914204D02846CC
:10125000FFF764FEB4F90C300022626322690021BA
:10126000C4E9002123F02403D9E71846FFF7B6FCB0
:10127000AFE7092243F040032A60A381C7E700BF1C
:1012800000000020844641EA000313F003036DD1FF
:10129000403A41D351F8043B40F8043B51F8043B39
:1012A00040F8043B51F8043B40F8043B51F8043B40
:1012B00040F8043B51F8043B40F8043B51F8043B30
:1012C00040F8043B51F8043B40F8043B51F8043B20
:1012D00040F8043B51F8043B40F8043B51F8043B10
:1012E00040F8043B51F8043B40F8043B51F8043B00
:1012F00040F8043B51F8043B40F8043B51F8043BF0
:1013000040F8043B51F8043B40F8043B51F8043BDF
:1013100040F8043B403ABDD2303211D351F8043B7F
:1013200040F8043B51F8043B40F8043B51F8043BBF
:1013300040F8043B51F8043B40F8043B103AEDD22E
:101340000C3205D351F8043B40F8043B043AF9D27F
:10135000043208D0D2071CBF11F8013B00F8013B52
:1013600001D30B8803806046704700BF082A13D35F
:101370008B078DD010F003038AD0C3F10403D21A77
:10138000DB071CBF11F8013B00F8013B80D331F8AB
:10139000023B20F8023B7BE7043AD9D3013A11F82B
:1013A000013B00F8013BF9D20B7803704B78437096
:1013B0008B788370604670472DE9F041144641B345
:1013C0000AB306460D4600F0F9FA8442074602D8F1
:1013D000B4EB500F13D821463046FFF71FFD80466F
:1013E00050B1BC422246294628BF3A46FFF74AFF81
:1013F00029463046FFF792FD4046BDE8F081A846F9
:101400004046BDE8F081A046FFF788FD4046BDE8B4
:10141000F081BDE8F0411146FFF700BD2DE9F84F1E
:1014200092461F460A698B68DDF828909A42B8BF39
:101430001A46CAF8002091F843300C46064613B10C
:101440000132CAF80020226891065FD5DAF8003030
:101450000233CAF80030226812F0060F11461DD17F
:10146000E1689942D8BF114618DD4FF0000804F139
:10147000190B05E0E568DAF80030ED1A45450CDD9A
:1014800001235A4639463046C847013008F1010861
:10149000F0D14FF0FF30BDE8F88F216894F8433069
:1014A000003B18BF01238A060AD5E1185A1C3020D8
:1014B00081F84300224494F8451082F84310023327
:1014C00004F1430239463046C8470130E1D0236871
:1014D000DAF80050216903F00603042BD4E9022056
:1014E0001BD08A4220DD4FF00008521A90441A3473
:1014F000002501E0454517DA0123224639463046EA
:10150000C847013005F10105F4D1C2E712F0060F1A
:101510000DD0003B18BF0123D2E7401B8A4220EACE
:10152000E078E2DC0028E2DC0020BDE8F88FE1682A
:10153000DAF800309942D8BF114696DCAEE700BF1A
:101540002DE9F047174684B00A7E0C9D0C460646EE
:10155000984601F1430C002A35D0A2F15803D9B2C4
:10156000202969D8202B67D8DFE813F0E600660051
:10157000660066006600660066006600660066003B
:101580006600AC00700066006600660066007000D1
:10159000660066006600660021008300C6006600E3
:1015A0006600B6006600830066006600EC002B68EB
:1015B00022686169181D286010061B6802D4520653
:1015C00000F1E08019600023E1462361CDF800803E
:1015D0003B4603AA21463046FFF720FF013020D0CA
:1015E00023694A4639463046C047013019D023683E
:1015F000E068DDF80C909B0718D5484516DD0025FE
:1016000004F1190A04E0E068A0EB0903AB420DDD28
:101610000123524639463046C047013005F10105E5
:10162000F1D14FF0FF3004B0BDE8F0874845B8BFB6
:10163000484604B0BDE8F08784F84220012004F158
:1016400042090023206184F84330BFE72A682368F9
:10165000111D1806296002D4590600F19580106802
:10166000014600286268C0F2938054484FF00A0E89
:1016700015E020682B6810F0800F53F8041B02D18E
:10168000400648BF89B26F2A4C482B6014BF4FF008
:101690000A0E4FF0080E0023626884F84330002AD7
:1016A000A26051DB236823F00403236000294BD19F
:1016B000002A7BD1E146BEF1080F56D0ACEB0903FE
:1016C000236183E72B681A6804332B6004F1420915
:1016D00084F842200120B4E72B686268191D296054
:1016E000D3F8009000214846FFF71AFD002863D088
:1016F000A0EB09006060A4E7236843F020032360A7
:1017000078222F4884F845202A6813F0800F52F879
:10171000041B03D113F0400F18BF89B22A60DA0707
:1017200044BF43F02003236019B9236823F020034A
:1017300023604FF0100EAEE7582384F845301F4861
:101740002368E1E72368DBE77546E146B1FBF5F383
:1017500005FB131A0A46AA4210F80A1009F8011DDF
:101760001946F3D2BEF1080FA8D12368DD07A5D52D
:10177000626823699A42A1DC302309F8013C09F12F
:10178000FF399BE719801EE7B2F90010084668E7A9
:101790002D20002AA26084F8430002DB23F004031A
:1017A00023600A2505484942AE46CEE7037884F80F
:1017B000423004F142097EE7606842E7D42D000818
:1017C000E82D0008704700BF704700BF70B5B1F941
:1017D0000C300C46990796B007D504F14703012257
:1017E000C4E90432236016B070BDB4F90E100029AC
:1017F000054629DB6A4600F011F9002822DB4FF488
:1018000080612846019EFFF709FB88B3A389206009
:1018100043F0800306F47046A381B6F5005F4FF4F1
:101820008063C4E90403DED1B4F90E10284600F049
:1018300057F80028D7D0A38923F0030343F001030E
:10184000A381D0E7B4F90C3013F0800F14BF402609
:101850004FF4806631462846FFF7E0FA40B1A3898D
:10186000206043F08003C4E90406A38116B070BD74
:10187000B4F90C309A05B6D423F0030304F14702FF
:1018800043F002030121C4E90421A3812260AAE7F5
:1018900070B50C46B1F90E10002996B015461E46DB
:1018A0000FDB6A4600F0BAF800280ADB019B03F45C
:1018B0007043A3F50053B3FA83F34FF480625B09DE
:1018C00008E0A28912F0800F4FF0000314BF4022FD
:1018D0004FF48062002033602A6016B070BD00BFF4
:1018E00038B5074D0022044608462A6000F0E8F8A3
:1018F000431C00D038BD2B68002BFBD0236038BDC3
:10190000C801002038B5074D0022044608462A6069
:1019100000F0EEF8431C00D038BD2B68002BFBD044
:10192000236038BDC801002010B50C46B1F90E1077
:1019300000F05EF8002803DB636D0344636510BDAF
:10194000A38923F48053A38110BD00BF00207047FA
:101950002DE9F0410C46B1F90C101F46CB050546A8
:1019600016460BD421F48051A1813B46B4F90E10E8
:1019700032462846BDE8F04100F07CB8B4F90E10BC
:101980000223002200F060F8B4F90C10EAE700BF6F
:1019900010B50C46B1F90E1000F056F8B4F90C3041
:1019A000421C0EBF23F4805343F480536065A3812F
:1019B00010BD00BFB1F90E1000F008B851F8043C9A
:1019C000181F002BBCBF0B58C018704738B5074D07
:1019D0000022044608462A6000F062F8431C00D04A
:1019E00038BD2B68002BFBD0236038BDC801002018
:1019F00038B50C46084D8446114620461A46002349
:101A00002B60644600F06CF8431C00D038BD2B6896
:101A1000002BFBD0236038BDC801002070B50C46F8
:101A2000084D03460026204611461C462E6000F055
:101A30003FF8431C00D070BD2B68002BFBD0236007
:101A400070BD00BFC801002038B50C46084D844663
:101A5000114620461A4600232B60644600F038F8F1
:101A6000431C00D038BD2B68002BFBD0236038BD51
:101A7000C801002038B50C46084D84461146204662
:101A80001A4600232B60644600F040F8431C00D047
:101A900038BD2B68002BFBD0236038BDC801002067
:101AA000024B58221A604FF0FF307047C8010020E7
:101AB000024B58221A604FF0FF307047C8010020D7
:101AC000024B58221A600020704700BFC801002056
:101AD000024B58221A604FF0FF307047C8010020B7
:101AE000024B58221A604FF0FF307047C8010020A7
:101AF000044A05491368002B08BF0B4618441060C0
:101B000018467047CC01002040020020024B5822AA
:101B10001A604FF0FF307047C801002072B6FEE730
:101B200000B591B02822002106A8FEF79DFB0023F6
:101B300001930293039304930593012206924FF4B9
:101B4000803307930A9202220D920E934FF40023E2
:101B50000F9306A800F08AFB80B90F23019302219E
:101B60000291002303934FF480620492059301A82D
:101B700000F0C4FE20B911B05DF804FBFFF7CEFF02
:101B8000FFF7CCFF30B583B000F038FBFFF7C8FF9C
:101B900000F0A6F800F034F8134C1449204600F089
:101BA000CDF9204600F04DFA02E01148FEF7BEFBE9
:101BB000642000F047FB04214FF0904001F055F8FD
:101BC0000C4B0093002301930B4D074C2B466A46A8
:101BD0000A49204600F063FA2968204600F0D4FA4A
:101BE0000028E5D1E1E700BF14020020D001002069
:101BF000BC2D0008DEADBEEFF8010020FC01002086
:101C000008B5194A0023536193611361136053604F
:101C10009360D3600121D16111620E215162134A98
:101C2000082111619360D360A121116002215160EC
:101C300013750F480F4A0260042242608360C3603C
:101C40004FF4003202614FF4401242610376437652
:101C50008376C3760377437700F0CAF800B908BDEE
:101C6000FFF75CFFFBE700BFD0010020FC01002074
:101C7000140200200064004000B589B000230393E3
:101C800004930593069307930268144B9A4202D07B
:101C900009B05DF804FB03F5D633DA6942F000724F
:101CA000DA61DA6902F000720192019A5A6942F42B
:101CB00000325A615B6903F400330293029B4FF4D4
:101CC000C05303930223049303230693092307932A
:101CD00003A94FF0904000F0E5FED9E70064004012
:101CE00070B588B000240394049405940694079476
:101CF000264B5A6942F480025A615A6902F4800202
:101D00000092009A5A6942F400325A615A6902F408
:101D100000320192019A5A6942F480225A615B6949
:101D200003F480230293029B224604214FF090404B
:101D300000F096FF164D22464FF40051284600F061
:101D40008FFF04230393012604960594069403A9A8
:101D50004FF0904000F0A6FE4FF44063039302233F
:101D600004930594032306930723079303A92846A6
:101D700000F098FE4FF400530393049605940694E4
:101D800003A9284600F08EFE08B070BD0010024086
:101D900000040048FEE7FEE7FEE7FEE7FEE77047C7
:101DA0007047704708B500F03BFA08BD82B00A4B97
:101DB0009A6942F001029A619A6902F00102009266
:101DC000009ADA6942F08052DA61DB6903F08053ED
:101DD0000193019B02B0704700100240034AD2F801
:101DE000883043F47003C2F88830704700ED00E09B
:101DF000002800F0A18038B5044690F82030D3B117
:101E00002268136843F00103136000F015FA0546D9
:101E100023685A6812F0010F10D100F00DFA401B30
:101E20000A28F5D9636A43F400336362052384F812
:101E30002030012038BDFFF71FFFE1E71A6822F0CC
:101E400002021A6000F0F8F9054623685A6812F099
:101E5000020F0DD000F0F0F9401B0A28F5D9636A93
:101E600043F400336362052384F820300120E1E766
:101E7000227E012A3DD01A6822F080021A60637E19
:101E8000012B3BD02268136823F040031360A37E2C
:101E9000012B39D02268136823F020031360E37EFE
:101EA000012B37D02268136843F010031360237F9F
:101EB000012B35D02268136823F008031360637F79
:101EC000012B33D02268136823F004031360A36846
:101ED000E268134322691343626913436268013A5B
:101EE00021681343CB6100206062012384F8203015
:101EF000A0E71A6842F080021A60C0E722681368FF
:101F000043F040031360C2E72268136843F02003E4
:101F10001360C4E72268136823F010031360C6E758
:101F20002268136843F008031360C8E72268136847
:101F300043F004031360CAE701207047026890F879
:101F40002030013BDBB2012B05D9436A43F48023E7
:101F500043620120704730B4D2F8003243F00103ED
:101F6000C2F800324B6903F01F03012000FA03F3AB
:101F7000D2F81C026FEA030C20EA0300C2F81C022C
:101F8000C869B0B9D2F80C020CEA0000C2F80C0221
:101F90008C884869CD6844EA0544483042F83040AE
:101FA0000C8848698D6844EA0544483002EBC0005B
:101FB0004460C86901281BD0886980BBD2F804023C
:101FC0000CEA0000C2F80402086970BBD2F81402DF
:101FD0000CEA0000C2F81402096A01292BD0D2F8D9
:101FE000003223F00103C2F80032002030BC7047F9
:101FF000D2F80C021843C2F80C028C8848690D68AC
:1020000044EA0544483042F830408C8948698D687C
:1020100044EA0544483002EBC0004460CCE7D2F803
:1020200004021843C2F80402CEE7D2F8140218439F
:10203000C2F81402D0E7D2F81C120B43C2F81C32CB
:10204000CDE770B5044690F82050EDB2012D06D0D2
:10205000436A43F4002343620125284670BD0223EE
:1020600080F820300268136823F00103136000F049
:10207000E3F8064623685B6813F0010F0CD000F00C
:10208000DBF8831B0A2BF5D9636A43F400336362E0
:10209000052384F82030E0E700256562DDE730B5F0
:1020A00090F820C00468A4680CF1FF3C5FFA8CFC37
:1020B000BCF1010F62D814F0E05F59D0C4F3016C99
:1020C000012404FA0CF41C608B68002B3DD10D68D0
:1020D000CB68046843EA45550CF118031B01E55031
:1020E00003680C690CF1180E03EB0E135C600B7D9A
:1020F000012B35D0D17993791B0443EA01635179DF
:1021000043EA012314790168234301EB0C11C1F860
:102110008C31D17893781B0443EA0163517843EA08
:102120000123117802680B4302EB0C12C2F88831CC
:1021300002680CF1180C4FEA0C1C52F80C3043F0FA
:10214000010342F80C3000201DE04C6843EAC40350
:10215000CC6823430CF11804240105682B51BFE718
:10216000036803EB0E13596841F480715960C1E7AD
:10217000436A43F400134362012004E0436A43F4DA
:1021800080234362012030BD90F82030013BDBB258
:10219000012B01D90020704703689B6803EA816323
:1021A000B3EB816F01D00120704700207047000021
:1021B00010B504460E4B1A784FF47A73B3FBF2F362
:1021C0000C4A1068B0FBF3F000F0AEFD68B90F2CBC
:1021D00001D901200AE0002221464FF0FF3000F033
:1021E00093FD054B1C60002000E0012010BD00BFE6
:1021F000600000205C0000206400002008B5074A51
:10220000136843F010031360032000F06BFD0F20F0
:10221000FFF7CEFFFFF7CAFD002008BD00200240F7
:10222000034A1168034B1B780B441360704700BFCF
:102230003C02002060000020014B1868704700BF7E
:102240003C02002038B50446FFF7F6FF0546B4F11E
:10225000FF3F02D0044B1B781C44FFF7EDFF401BEF
:10226000A042FAD338BD00BF60000020002800F073
:10227000FF8270B582B00446036813F0010F3BD0B3
:10228000B44B5B6803F00C03042B1ED0B14B5B68AE
:1022900003F00C03082B13D06368B3F5803F68D0BC
:1022A000002B40F0928003F1804303F504331A6859
:1022B00022F480321A601A6822F480221A605DE0EB
:1022C000A44B5B6813F4803FE6D04FF4003393FADD
:1022D000A3F3A04B19684FF4003393FAA3F3B3FAB6
:1022E00083F303F01F03012202FA03F30B4203D02E
:1022F0006368002B00F0BE82236813F0020F00F029
:10230000C480944B5B6813F00C0F00F09C80914BE1
:102310005B6803F00C03082B00F08F802369002B0F
:1023200000F0F080012292FAA2F3B3FA83F303F1F2
:10233000845303F584139B001A60FFF77DFF054665
:10234000022393FAA3F3834B1968022393FAA3F3AE
:10235000B3FA83F303F01F03012202FA03F30B42E3
:1023600040F0C280FFF768FF401B0228E8D9032035
:1023700089E2784A136843F480331360754AD36A5C
:1023800023F00F03A1680B43D3626368002B36D0A0
:10239000FFF752FF05464FF4003393FAA3F36D4B5A
:1023A00019684FF4003393FAA3F3B3FA83F303F0FD
:1023B0001F03012202FA03F30B429DD1FFF73CFFFA
:1023C000401B6428E7D903205DE2B3F5A02F09D0B4
:1023D000604B1A6822F480321A601A6822F4802254
:1023E0001A60CBE703F18043A3F53C331A6842F44B
:1023F00080221A601A6842F480321A60BEE7FFF742
:102400001BFF05464FF4003393FAA3F3514B1968B1
:102410004FF4003393FAA3F3B3FA83F303F01F03EB
:10242000012202FA03F30B423FF466AFFFF704FF09
:10243000401B6428E6D9032025E2464B5B6813F471
:10244000803F7FF46BAF022393FAA3F3414B1968EB
:10245000022393FAA3F3B3FA83F303F01F030122D9
:1024600002FA03F30B4203D02369934240F0048243
:102470003848036823F0F8036169F82292FAA2F25F
:10248000B2FA82F291400B430360236813F0080F05
:1024900000F08C80A369002B60D0012191FAA1F299
:1024A000B2FA82F22C4B13449B001960FFF7C4FE72
:1024B0000546022393FAA3F293FAA3F293FAA3F246
:1024C000244A516A93FAA3F3B3FA83F303F01F0388
:1024D000012202FA03F30B4268D1FFF7ADFE401B65
:1024E0000228E6D90320CEE11A48036823F0F80356
:1024F0006169F82292FAA2F2B2FA82F291400B4399
:102500000360C2E7012393FAA3F3B3FA83F303F161
:10251000845303F584139B0000221A60FFF78CFE9E
:102520000546022393FAA3F30A4B1968022393FA90
:10253000A3F3B3FA83F303F01F03012202FA03F3B8
:102540000B42A2D0FFF778FE401B0228E9D90320F6
:1025500099E100BF0010024020819010012292FA00
:10256000A2F2B2FA82F2B74B13449B0000221A6027
:10257000FFF762FE0546022393FAA3F293FAA3F251
:1025800093FAA3F2B04A516A93FAA3F3B3FA83F32E
:1025900003F01F03012202FA03F30B4206D0FFF7F8
:1025A0004BFE401B0228E6D903206CE1236813F0A0
:1025B000040F00F0A980A44BDB6913F0805F20D1E9
:1025C000A14BDA6942F08052DA61DB6903F0805393
:1025D0000193019B01259D4B1B6813F4807F12D052
:1025E000E368012B23D073BB03F1804303F504336D
:1025F0001A6A22F001021A621A6A22F004021A62AE
:102600001AE00025E7E7914A136843F480731360EA
:10261000FFF712FE06468D4B1B6813F4807FDFD157
:10262000FFF70AFE801B6428F5D903202BE1864AB8
:10263000136A43F001031362E368002B3CD0FFF7F9
:10264000FBFD06462EE0052B09D07F4B1A6A22F0CF
:1026500001021A621A6A22F004021A62ECE77A4B4B
:102660001A6A42F004021A621A6A42F001021A62FD
:10267000E2E7022393FAA3F3734B596A022393FA16
:10268000A3F3B3FA83F303F01F03012202FA03F367
:10269000194238D1FFF7D0FD801B41F288339842B0
:1026A00000F2EC80022393FAA3F293FAA3F3002B37
:1026B000DFD0654B196AE1E7FFF7BEFD064618E07B
:1026C000022393FAA3F3604B596A022393FAA3F30C
:1026D000B3FA83F303F01F03012202FA03F3194252
:1026E00011D0FFF7A9FD801B41F28833984200F218
:1026F000C780022393FAA3F293FAA3F3002BDFD04F
:10270000514B196AE1E7B5BBE369002B00F0BA80D1
:102710004D4A526802F00C02082A00F09980022B00
:102720002FD04FF0807393FAA3F3B3FA83F303F13E
:10273000845303F584139B0000221A60FFF77CFD8D
:1027400004464FF0007393FAA3F33F4B19684FF020
:10275000007393FAA3F3B3FA83F303F01F03012288
:1027600002FA03F319426BD0FFF766FD001B022843
:10277000E7D9032087E0344AD36923F08053D3613B
:10278000C2E74FF0807393FAA3F3B3FA83F303F134
:10279000845303F584139B0000221A60FFF74CFD5D
:1027A00005464FF0007393FAA3F3274B19684FF0D7
:1027B000007393FAA3F3B3FA83F303F01F03012228
:1027C00002FA03F3194206D0FFF736FD401B022838
:1027D000E7D9032057E01C494B6823F47413626A5D
:1027E000206A024313434B604FF0807393FAA3F3C4
:1027F000B3FA83F303F1845303F584139B0001229E
:102800001A60FFF719FD04464FF0007393FAA3F323
:102810000D4B19684FF0007393FAA3F3B3FA83F3E7
:1028200003F01F03012202FA03F3194206D1FFF756
:1028300003FD001B0228E7D9032024E0002022E04A
:10284000002020E020819010001002400070004025
:10285000012B1AD0104B5B6803F48031226A91423D
:1028600015D103F47013626A934212D100200AE07A
:1028700001207047012006E0012004E0032002E06F
:10288000032000E0002002B070BD0120FBE7012022
:10289000F9E70120F7E700BF00100240114B5B6829
:1028A00003F00C02042A18D0082A18D1C3F383427B
:1028B0000D49885C0B4AD26A02F00F020B498A5C10
:1028C00013F4803F05D00A4BB3FBF2F303FB00F097
:1028D0007047084B03FB00F07047054870470648F7
:1028E000704700BF001002401C2E00080C2E00088C
:1028F0000024F40000093D0000127A00002800F0D6
:10290000BE8070B50D460446614B1B6803F007039B
:102910008B420BD25E4A136823F007030B4313600C
:10292000136803F007038B4240F0AB80236813F079
:10293000020F06D0574A536823F0F003A1680B43F7
:102940005360236813F0010F5AD06368012B2DD018
:10295000022B40D0022292FAA2F24E4A10680222C2
:1029600092FAA2F2B2FA82F202F01F02012101FAF7
:1029700002F2104200F0878046494A6822F00302C2
:1029800013434B60FFF758FC0646424B5B6803F06D
:102990000C036268B3EB820F32D0FFF74DFC801B53
:1029A00041F288339842F0D9032067E04FF40032B7
:1029B00092FAA2F2374A10684FF4003292FAA2F269
:1029C000B2FA82F202F01F02012101FA02F202427F
:1029D000D2D1012052E04FF0007292FAA2F22D4AB9
:1029E00010684FF0007292FAA2F2B2FA82F202F08C
:1029F0001F02012101FA02F21042BDD101203DE087
:102A0000234B1B6803F00703AB420AD9204A136823
:102A100023F007032B431360136803F00703AB4253
:102A200033D1236813F0040F06D01A4A536823F4F5
:102A3000E063E1680B435360236813F0080F07D08D
:102A4000144A536823F46053216943EAC103536075
:102A5000FFF724FF0F4B5B6803F0F003F02292FABC
:102A6000A2F2B2FA82F2D3400B4AD35CD8400B4BAD
:102A700018600B4B1868FFF79BFB002070BD01200E
:102A800070470120FAE70120F8E70120F6E700BFD0
:102A90000020024000100240FC2D00085C000020D5
:102AA00064000020F0B583B0002362E085685E001A
:102AB0000324B44025EA0405CC68B4402C43846068
:102AC000456825EA0C054C68C4F300149C402C436F
:102AD00044605FE0DD08083550F8254003F0070C3E
:102AE0004FEA8C0C4FF00F0E0EFA0CFE24EA0E0E7D
:102AF0000C6904FA0CF444EA0E0440F8254060E046
:102B0000032400E0002404FA0EF42C430CF1020C20
:102B10004F4D45F82C404F4CA568D44325EA02069A
:102B20004F6817F4801F01D042EA0506494DAE6098
:102B3000ED6804EA05064F6817F4001F01D042EA69
:102B40000506444DEE606D6804EA05064F6817F40B
:102B5000003F01D042EA05063E4D6E602D682C40D4
:102B60004E6816F4803F01D042EA0504394A1460E9
:102B700001330A6832FA03F468D04FF0010C0CFA02
:102B800003FC1CEA0202F3D04C6804F00304013C8D
:102B9000012C8BD94C6804F00304032C0CD0C468BE
:102BA0005D004FF0030C0CFA05FC24EA0C0C8C6859
:102BB000AC4044EA0C04C4604C6804F00304022CEA
:102BC00088D004684FEA430E4FF0030C0CFA0EFC59
:102BD00024EA0C0C4C6804F0030404FA0EF444EAF2
:102BE0000C0404604C6814F4403FC1D01A4CA56931
:102BF00045F00105A561A46904F001040194019C5C
:102C00004FEA930C0CF10205114C54F8255003F0D7
:102C1000030E4FEA8E0E0F2404FA0EF425EA040583
:102C2000B0F1904F3FF46EAF0C4CA0420AD004F5C7
:102C30008064A04208D004F58064A0423FF460AFF5
:102C4000052460E701245EE702245CE703B0F0BDE1
:102C50000000014000040140001002400004004850
:102C60000AB18161704781627047436901EA0302DA
:102C700021EA030141EA024181617047002808DB33
:102C80000901C9B200F1604000F5614080F800130D
:102C9000704700F00F000901C9B2014B1954704789
:102CA00014ED00E000B500F00700C0F1070CBCF126
:102CB000040F28BF4FF0040C031D062B0FD9C31EB1
:102CC0004FF0FF3E0EFA0CF021EA000199400EFA97
:102CD00003FE22EA0E0241EA02005DF804FB002333
:102CE000EEE70000074AD36823F4E0631B041B0CE3
:102CF000000200F4E060034343F0BF6343F4003399
:102D0000D360704700ED00E010B50446054BD8686D
:102D1000C0F30220FFF7C6FF01462046FFF7AEFFD3
:102D200010BD00BF00ED00E00138B0F1807F0BD294
:102D30004FF0E0235861054AF02182F8231000206B
:102D4000986107221A6170470120704700ED00E08A
:102D5000DFF834D0FFF742F80C480D490D4A002344
:102D600002E0D458C4500433C4188C42F9D30A4A40
:102D70000A4C002301E013600432A242FBD3FDF7AA
:102D80004BFAFEF7FFFEFEE70030002000000020B7
:102D9000680000203C2E000868000020400200204F
:102DA000FEE70000F8B500BFF8BC08BC9E467047BF
:0C2DB000F8B500BFF8BC08BC9E46704798
:102DBC004F4B0000232D302B20000000686C4C0082
:102DCC006566674546470000303132333435363757
:102DDC00383941424344454600000000303132331B
:102DEC00343536373839616263646566000000003B
:102DFC00000000000000000001020304060708099F
:102E0C000102030405060708090A0B0C0D0E0F102E
:102E1C0002030405060708090A0B0C0D0E0F10100F
:082E2C00F4E2FF7F0100000049
:042E3400F901000898
:042E3800D1010008BC
:102E3C00040000200000000084000020EC000020B2
:102E4C005401002000000000000000000000000001
:102E5C000000000000000000000000000000000066
:102E6C000000000000000000000000000000000056
:102E7C000000000000000000000000000000000046
:102E8C0000000000030000008400002000127A0003
:082E9C0001000000100000001D
:0400000508002D5171
:00000001FF
